:020000040800F2
:10000000005000201D0B00082109000829090008E4
:100010003109000839090008410900080000000002
:100020000000000000000000000000004909000876
:100030005509000800000000610900086D0900086A
:10004000650B0008650B0008650B0008650B0008D0
:10005000650B0008650B0008650B0008650B0008C0
:10006000650B0008650B0008650B0008790900089E
:10007000650B0008650B0008650B0008650B0008A0
:10008000650B0008650B0008650B0008650B000890
:10009000650B0008650B0008650B0008650B000880
:1000A000650B0008650B0008650B0008650B000870
:1000B000650B0008650B0008650B0008650B000860
:1000C000650B0008650B0008650B0008650B000850
:1000D000650B0008650B0008650B0008650B000840
:1000E000650B0008650B0008650B000800000000A8
:1000F0000000000000000000000000000000000000
:0C01000000000000000000005FF808F1A3
:10010C0010B5054C237833B9044B13B10448AFF345
:10011C0000800123237010BD680000200000000047
:10012C00F839000808B5034B1BB103490348AFF37A
:10013C00008008BD000000006C000020F8390008A9
:10014C0080B483B000AF00237B6013E000233B60DE
:10015C000AE00D4A7B68DB001A443B68134400221A
:10016C001A703B6801333B603B68072BF1DD7B6801
:10017C0001337B607B68072BE8DD00BF00BF0C37C9
:10018C00BD4680BC704700BFE001002080B584B044
:10019C0000AF03463960FB7100F038FDF860174B77
:1001AC001B68FA68D31A3A689A4222D8134AFB6839
:1001BC001360134B1B78DB08FB72114B1B7803F09D
:1001CC000703BB72BB7A012202FA03F1FA79FB7ABC
:1001DC00C8B20C49D2000A44134402461A70084BA8
:1001EC001B780133DBB203F03F03DAB2044B1A7015
:1001FC0000E000BF1037BD4680BD00BF24020020C8
:10020C0020020020E001002080B582B000AF00F099
:10021C00A5FC00F033F800F095F900F075F900F04A
:10022C0089F800F0C5F800F045F900F0F7F8114B2B
:10023C005B687B607B6823F0E0637B607B6843F0EA
:10024C0000737B600B4A7B68536000F0DFFC034655
:10025C0083F4254383F0A503184602F0F1FBFFF766
:10026C006FFF054802F092F864210020FFF78EFF23
:10027C00FAE700BF000001405001002080B594B0A7
:10028C0000AF07F1280328220021184602F00BFDCD
:10029C0007F1140300221A605A609A60DA601A613E
:1002AC003B1D00221A605A609A60DA600123BB621F
:1002BC004FF48033FB6200233B630123BB630223B7
:1002CC007B644FF48033BB644FF4E013FB6407F1A1
:1002DC002803184601F0C0FA0346002B01D000F0A9
:1002EC00C9F90F237B610223BB610023FB614FF42F
:1002FC0080633B6200237B6207F1140302211846E2
:10030C0001F02CFD0346002B01D000F0B3F90223C1
:10031C007B604FF40043FB603B1D184601F0ACFEC4
:10032C000346002B01D000F0A5F900BF5037BD46A5
:10033C0080BD000080B584B000AF3B1D00221A6068
:10034C005A609A60184B194A1A60174B00229A602F
:10035C00154B01221A73144B00221A75124B4FF4D1
:10036C006022DA61104B00225A600F4B01221A6195
:10037C000D4800F055FC0346002B01D000F07AF933
:10038C0000237B600123BB600023FB603B1D1946EF
:10039C00054800F01DFD0346002B01D000F06AF962
:1003AC0000BF1037BD4680BD8400002000240140F2
:1003BC0080B500AF174B184A1A60164B4FF4827277
:1003CC005A60144B00229A60124B0022DA60114BD7
:1003DC0000221A610F4B00225A610E4B4FF400722F
:1003EC009A610C4B1822DA610A4B00221A62094BF3
:1003FC0000225A62074B00229A62064B0A22DA62EA
:10040C00044801F0EFFE0346002B01D000F032F956
:10041C0000BF80BDF80000200030014080B586B0E0
:10042C0000AF07F1080300221A605A609A60DA6084
:10043C003B4600221A605A601D4B4FF080421A60F6
:10044C001B4B41F61F425A60194B00229A60184B05
:10045C000922DA60164B00221A61154B00229A61B0
:10046C00134801F043FF0346002B01D000F002F9C2
:10047C004FF48053BB6007F1080319460C4801F098
:10048C00D7FF0346002B01D000F0F4F800233B60AB
:10049C0000237B603B461946054802F095F903465C
:1004AC00002B01D000F0E6F800BF1837BD4680BD28
:1004BC005001002080B500AF114B124A1A60104B4E
:1004CC004FF4E1325A600E4B00229A600C4B002222
:1004DC00DA600B4B00221A61094B0C225A61084B53
:1004EC0000229A61064B0022DA61054802F0CAF933
:1004FC000346002B01D000F0BDF800BF80BD00BF4B
:10050C00980100200044004080B582B000AF0C4B35
:10051C005B690B4A43F001035361094B5B6903F0C0
:10052C0001037B607B68002200210B2000F061FE40
:10053C000B2000F07AFE00BF0837BD4680BD00BF1F
:10054C000010024080B588B000AF07F11003002204
:10055C001A605A609A60DA60424B9B69414A43F0D8
:10056C00100393613F4B9B6903F01003FB60FB6826
:10057C003C4B9B693B4A43F020039361394B9B698D
:10058C0003F02003BB60BB68364B9B69354A43F0D4
:10059C0004039361334B9B6903F004037B607B681A
:1005AC00304B9B692F4A43F0080393612D4B9B6999
:1005BC0003F008033B603B6800224FF400512A48CB
:1005CC0001F032F900221021284801F02DF9012206
:1005DC004FF40041254801F027F901224FF47E71B8
:1005EC00234801F021F94FF400533B6101237B6157
:1005FC000023BB610223FB6107F1100319461A4863
:10060C0000F08EFF10233B6101237B610023BB6153
:10061C000223FB6107F110031946144800F080FF18
:10062C004FF400433B6101237B610023BB61012339
:10063C00FB6107F1100319460C4800F071FF4FF4F1
:10064C007E733B6101237B610023BB610123FB6152
:10065C0007F110031946064800F062FF00BF20376F
:10066C00BD4680BD00100240001001400008014052
:10067C00000C014080B400AF72B600BF00BFFDE7B4
:10068C0080B485B000AF154B9B69144A43F001034D
:10069C009361124B9B6903F00103BB60BB680F4B6A
:1006AC00DB690E4A43F08053D3610C4BDB6903F0DA
:1006BC0080537B607B680A4B5B68FB60FB6823F0B4
:1006CC00E063FB60FB6843F00073FB60044AFB686B
:1006DC00536000BF1437BD4680BC70470010024009
:1006EC000000014080B588B000AF786007F11003BE
:1006FC0000221A605A609A60DA607B681B68284A8C
:10070C00934249D1274B9B69264A43F4007393616A
:10071C00244B9B6903F40073FB60FB68214B9B69C2
:10072C00204A43F0040393611E4B9B6903F00403BE
:10073C00BB60BB6801233B6103237B6107F11003A2
:10074C001946194800F0ECFE184B194A1A60174B61
:10075C0000225A60154B00229A60144B8022DA60FA
:10076C00124B4FF480721A61104B4FF480625A6135
:10077C000E4B20229A610D4B0022DA610B4800F0DF
:10078C006FFD0346002B01D0FFF774FF7B68074A0F
:10079C001A62064A7B68536200BF2037BD4680BD93
:1007AC00002401400010024000080140B400002069
:1007BC000800024080B588B000AF786007F11003E4
:1007CC0000221A605A609A60DA607B681B681B4AC8
:1007DC0093422FD11A4B9B69194A43F4805393616E
:1007EC00174B9B6903F48053FB60FB68144B9B69AC
:1007FC00134A43F004039361114B9B6903F0040308
:10080C00BB60BB68A0233B6102237B610323FB61BC
:10081C0007F1100319460B4800F082FE40233B61A0
:10082C0000237B610023BB6107F1100319460548C7
:10083C0000F076FE00BF2037BD4680BD0030014081
:10084C00001002400008014080B485B000AF786011
:10085C007B681B68B3F1804F0BD1084BDB69074AEF
:10086C0043F00103D361054BDB6903F00103FB602B
:10087C00FB6800BF1437BD4680BC704700100240B7
:10088C0080B588B000AF786007F1100300221A60C1
:10089C005A609A60DA607B681B681B4A93422FD1BE
:1008AC001A4BDB69194A43F40033D361174BDB69EC
:1008BC0003F40033FB60FB68144B9B69134A43F051
:1008CC0004039361114B9B6903F00403BB60BB6889
:1008DC0004233B6102237B610323FB6107F11003BB
:1008EC0019460B4800F01CFE08233B6100237B617A
:1008FC000023BB6107F110031946054800F010FEF8
:10090C0000BF2037BD4680BD0044004000100240AF
:10091C000008014080B400AF00BFFDE780B400AF19
:10092C0000BFFDE780B400AF00BFFDE780B400AFAF
:10093C0000BFFDE780B400AF00BFFDE780B400AF9F
:10094C0000BFBD4680BC704780B400AF00BFBD4641
:10095C0080BC704780B400AF00BFBD4680BC704700
:10096C0080B500AF00F040F900BF80BD80B500AF8E
:10097C00024800F0CFFC00BF80BD00BFB4000020D7
:10098C0080B400AF01231846BD4680BC704780B5CB
:10099C0082B000AF7860396002F0D4F903461622B9
:1009AC001A604FF0FF3318460837BD4680BD80B53E
:1009BC0082B000AF78604FF0FF317868FFF7E7FF47
:1009CC0000BFFDE780B586B000AFF860B9607A6013
:1009DC0000237B610AE0AFF300800146BB685A1C20
:1009EC00BA60CAB21A707B6901337B617A697B6821
:1009FC009A42F0DB7B6818461837BD4680BD80B53F
:100A0C0086B000AFF860B9607A6000237B6109E0C2
:100A1C00BB685A1CBA601B781846AFF300807B6920
:100A2C0001337B617A697B689A42F1DB7B681846FB
:100A3C001837BD4680BD80B483B000AF78604FF0EE
:100A4C00FF3318460C37BD4680BC704780B483B06A
:100A5C0000AF786039603B684FF400525A60002355
:100A6C0018460C37BD4680BC704780B483B000AFCD
:100A7C007860012318460C37BD4680BC704780B4A3
:100A8C0085B000AFF860B9607A600023184614375F
:100A9C00BD4680BC7047000080B586B000AF786062
:100AAC00144A154BD31A7B617B693B61134B1B6852
:100ABC00002B02D1114B124A1A60104B1A687B683A
:100ACC0013443A699A4207D202F03CF903460C22CD
:100ADC001A604FF0FF3309E0084B1B68FB60074BB3
:100AEC001A687B681344054A1360FB68184618376C
:100AFC00BD4680BD005000200004000028020020EC
:100B0C008003002080B400AF00BFBD4680BC70479E
:100B1C00FFF7F8FF0B480C490C4A002302E0D458AD
:100B2C00C4500433C4188C42F9D3094A094C00232D
:100B3C0001E013600432A242FBD302F009F9FFF783
:100B4C0063FB70470000002068000020203B000879
:100B5C00680000207C030020FEE7000080B500AF99
:100B6C00084B1B68074A43F010031360032000F086
:100B7C0035FB0F2000F008F8FFF782FD0023184624
:100B8C0080BD00BF0020024080B582B000AF78600D
:100B9C00124B1A68124B1B7819464FF47A73B3FB3D
:100BAC00F1F3B2FBF3F3184600F04DFB0346002BB8
:100BBC0001D001230EE07B680F2B0AD80022796844
:100BCC004FF0FF3000F015FB064A7B6813600023E2
:100BDC0000E0012318460837BD4680BD0000002008
:100BEC00080000200400002080B400AF054B1B78E7
:100BFC001A46054B1B681344034A136000BFBD46DD
:100C0C0080BC7047080000202C02002080B400AF8C
:100C1C00024B1B681846BD4680BC70472C02002056
:100C2C0080B586B000AF78600023FB7500233B6174
:100C3C000023BB600023FB607B68002B01D10123E8
:100C4C00BEE07B689B68002B7B689B6A002B09D1FC
:100C5C007B680022DA627B68002283F824207868A3
:100C6C00FFF740FD786800F0ABF90346FB757B6835
:100C7C009B6A03F01003002B40F09980FB7D002B46
:100C8C0040F095807B689B6A23F4885323F0020321
:100C9C0043F002027B689A627B685A687B68DB6966
:100CAC001A437B681B7B5B001343BA681343BB601E
:100CBC007B689B68B3F5807F03D07B689B68012BB6
:100CCC0002D14FF4807300E000233A6913433B6177
:100CDC007B681B7D012B19D17B681B7B002B09D1F9
:100CEC007B689B69013B5A033B69134343F40063E4
:100CFC003B610BE07B689B6A43F020027B689A6245
:100D0C007B68DB6A43F001027B68DA627B681B68F4
:100D1C005B6823F469417B681B683A690A435A6033
:100D2C007B681B689A68284B13407A681268B9680C
:100D3C000B4393607B689B68B3F5807F03D07B6823
:100D4C009B68012B04D17B681B69013B1B05FB6075
:100D5C007B681B68DB6A23F470017B681B68FA688C
:100D6C000A43DA627B681B689A68184B1340BA68AE
:100D7C009A420BD17B680022DA627B689B6A23F073
:100D8C00030343F001027B689A6218E07B689B6A5C
:100D9C0023F0120343F010027B689A627B68DB6AD3
:100DAC0043F001027B68DA620123FB7507E07B6884
:100DBC009B6A43F010027B689A620123FB75FB7DF2
:100DCC0018461837BD4680BDFDF7E1FFFE0E1FFF2C
:100DDC0080B485B000AF786039600023FB730023CA
:100DEC00BB607B6893F82430012B01D10223DCE03B
:100DFC007B68012283F824203B685B68062B1CD897
:100E0C007B681B68596B3B685A6813469B001344FC
:100E1C00053B1F2202FA03F3DB4319403B681868B9
:100E2C003B685A6813469B001344053B00FA03F2D7
:100E3C007B681B680A435A633CE03B685B680C2B7D
:100E4C001CD87B681B68196B3B685A6813469B005F
:100E5C001344233B1F2202FA03F3DB4319403B6884
:100E6C0018683B685A6813469B001344233B00FAEE
:100E7C0003F27B681B680A431A631BE07B681B68E0
:100E8C00D96A3B685A6813469B001344413B1F22A6
:100E9C0002FA03F3DB4319403B6818683B685A6855
:100EAC0013469B001344413B00FA03F27B681B681A
:100EBC000A43DA623B681B68092B1CD97B681B68E8
:100ECC00D9683B681A6813465B0013441E3B072223
:100EDC0002FA03F3DB4319403B6898683B681A68D5
:100EEC0013465B0013441E3B00FA03F27B681B683D
:100EFC000A43DA6019E07B681B6819693B681A6859
:100F0C0013465B001344072202FA03F3DB43194038
:100F1C003B6898683B681A6813465B00134400FAF8
:100F2C0003F27B681B680A431A613B681B68102B31
:100F3C0003D03B681B68112B32D17B681B681D4AA0
:100F4C00934225D17B681B689B6803F40003002B3C
:100F5C0026D17B681B689A687B681B6842F4000288
:100F6C009A603B681B68102B1AD1134B1B68134AF1
:100F7C00A2FB03239A0C13469B0013445B00BB603B
:100F8C0002E0BB68013BBB60BB68002BF9D107E0FA
:100F9C007B689B6A43F020027B689A620123FB7397
:100FAC007B68002283F82420FB7B18461437BD464F
:100FBC0080BC7047002401400000002083DE1B43EE
:100FCC0080B584B000AF78600023FB607B681B6841
:100FDC009B6803F00103012B2ED17B681B689A6878
:100FEC007B681B6822F001029A60FFF70FFEF86025
:100FFC001BE0FFF70BFE0246FB68D31A022B14D939
:10100C007B681B689B6803F00103012B0DD17B6887
:10101C009B6A43F010027B689A627B68DB6A43F040
:10102C0001027B68DA62012307E07B681B689B681E
:10103C0003F00103012BDCD0002318461037BD460A
:10104C0080BD000080B485B000AF78607B6803F091
:10105C000703FB600C4BDB68BB60BA684FF6FF0301
:10106C001340BB60FB681A02BB68134343F0BF63B9
:10107C0043F40033BB60044ABB68D36000BF143731
:10108C00BD4680BC704700BF00ED00E080B400AFEF
:10109C00044BDB681B0A03F007031846BD4680BCF3
:1010AC00704700BF00ED00E080B483B000AF034692
:1010BC00FB7197F90730002B0BDBFB7903F01F0258
:1010CC00064997F907305B09012000FA02F241F852
:1010DC00232000BF0C37BD4680BC704700E100E008
:1010EC0080B483B000AF03463960FB7197F90730C9
:1010FC00002B0ADB3B68DAB20C4997F90730120176
:10110C00D2B20B4483F800230AE03B68DAB20849F8
:10111C00FB7903F00F03043B1201D2B20B441A7695
:10112C0000BF0C37BD4680BC704700BF00E100E03B
:10113C0000ED00E080B489B000AFF860B9607A606F
:10114C00FB6803F00703FB61FB69C3F10703042B86
:10115C0028BF0423BB61FB690433062B02D9FB694E
:10116C00033B00E000237B614FF0FF32BB6902FAC6
:10117C0003F3DA43BB681A407B699A404FF0FF31A6
:10118C007B6901FA03F3D9437B680B401343184680
:10119C002437BD4680BC704780B582B000AF786004
:1011AC007B68013BB3F1807F01D301230FE00A4A36
:1011BC007B68013B53600F214FF0FF30FFF790FF2E
:1011CC00054B00229A60044B07221A600023184634
:1011DC000837BD4680BD00BF10E000E080B582B08E
:1011EC0000AF78607868FFF72DFF00BF0837BD4669
:1011FC0080BD80B586B000AF0346B9607A60FB73E2
:10120C0000237B61FFF742FF78617A68B9687869DF
:10121C00FFF790FF024697F90F3011461846FFF77B
:10122C005FFF00BF1837BD4680BD80B582B000AFF0
:10123C000346FB7197F907301846FFF735FF00BFDF
:10124C000837BD4680BD80B582B000AF7860786845
:10125C00FFF7A2FF034618460837BD4680BD0000C5
:10126C0080B485B000AF78600023FB607B68002BF6
:10127C0001D1012343E07B681B681A46224B1344BF
:10128C00224AA2FB03231B099A007B681A647B6821
:10129C001F4ADA637B68022283F821207B681B6873
:1012AC001B68FB60FB6823F47F5323F03003FB6067
:1012BC007B685A687B689B681A437B68DB681A43B7
:1012CC007B681B691A437B685B691A437B689B6963
:1012DC001A437B68DB691343FA681343FB607B6832
:1012EC001B68FA681A607B6800229A637B6801228B
:1012FC0083F821207B68002283F8202000231846E5
:10130C001437BD4680BC7047F8FFFDBFCDCCCCCCAC
:10131C000000024080B584B000AF78607B68DB6B66
:10132C001B68FB607B681B681B68BB607B681B6C65
:10133C0004229A40FB681340002B4FD0BB6803F08B
:10134C000403002B4AD07B681B681B6803F0200346
:10135C00002B07D17B681B681A687B681B6822F01E
:10136C0004021A607B681B68664A934229D07B682A
:10137C001B68654A934222D07B681B68634A934280
:10138C001AD07B681B68624A934212D07B681B6838
:10139C00604A93420AD07B681B685F4A934202D131
:1013AC004FF480030EE04FF080630BE04FF480238A
:1013BC0008E04FF4804305E04FF4806302E04023E3
:1013CC0000E00423554A53607B68DB6A002B00F075
:1013DC0094807B68DB6A786898478EE07B681B6C2E
:1013EC0002229A40FB681340002B56D0BB6803F0D6
:1013FC000203002B51D07B681B681B6803F0200391
:10140C00002B0BD17B681B681A687B681B6822F069
:10141C000A021A607B68012283F821207B681B6812
:10142C00384A934229D07B681B68374A934222D0B2
:10143C007B681B68354A93421AD07B681B68344A18
:10144C00934212D07B681B68324A93420AD07B6865
:10145C001B68314A934202D14FF400130EE04FF057
:10146C0000730BE04FF4003308E04FF4005305E039
:10147C004FF4007302E0202300E00223274A53605C
:10148C007B68002283F820207B689B6A002B34D079
:10149C007B689B6A786898472FE07B681B6C0822F6
:1014AC009A40FB681340002B28D0BB6803F008035C
:1014BC00002B23D07B681B681A687B681B6822F0A2
:1014CC000E021A607B681A6C7B68DB6B012101FAD7
:1014DC0002F25A607B6801229A637B68012283F8CE
:1014EC0021207B68002283F820207B681B6B002B5B
:1014FC0004D07B681B6B7868984700BF00BF10371F
:10150C00BD4680BD080002401C0002403000024075
:10151C0044000240580002406C00024000000240AF
:10152C0080B48BB000AF7860396000237B620023FD
:10153C003B6269E101227B6A02FA03F3FB613B68BF
:10154C001B68FA691340BB61BA69FB699A4240F0A7
:10155C0058813B685B689A4A93425ED0984A9342A2
:10156C0075D8984A934258D0964A93426FD8964A67
:10157C00934252D0944A934269D8944A93424CD0A5
:10158C00924A934263D8924A934246D0904A9342ED
:10159C005DD8122B2AD8122B59D801A252F823F05D
:1015AC002716000801160008131600085516000827
:1015BC005B1600085B1600085B1600085B1600083B
:1015CC005B1600085B1600085B1600085B1600082B
:1015DC005B1600085B1600085B1600085B1600081B
:1015EC005B160008091600081D160008794A93427C
:1015FC0013D02CE03B68DB683B6229E03B68DB687E
:10160C0004333B6224E03B68DB6808333B621FE039
:10161C003B68DB680C333B621AE03B689B68002B31
:10162C0002D104233B6213E03B689B68012B05D17C
:10163C0008233B627B68FA691A6109E008233B6264
:10164C007B68FA695A6103E000233B6200E000BF4B
:10165C00BB69FF2B01D87B6801E07B6804337B619D
:10166C00BB69FF2B02D87B6A9B0002E07B6A083BBC
:10167C009B003B617B691A680F213B6901FA03F3FC
:10168C00DB431A40396A3B6901FA03F31A437B695D
:10169C001A603B685B6803F08053002B00F0B1804C
:1016AC004D4B9B694C4A43F0010393614A4B9B6938
:1016BC0003F00103BB60BB68484A7B6A9B0802339A
:1016CC0052F82330FB607B6A03F003039B000F226C
:1016DC0002FA03F3DB43FA681340FB607B68404A71
:1016EC00934213D07B683F4A93420DD07B683E4AAD
:1016FC00934207D07B683D4A934201D1032306E015
:10170C00042304E0022302E0012300E000237A6AB0
:10171C0002F0030292009340FA681343FB602F49D6
:10172C007B6A9B080233FA6841F823203B685B68AC
:10173C0003F48013002B06D02D4B9A682C49BB69FF
:10174C0013438B6006E02A4B9A68BB69DB4328493C
:10175C0013408B603B685B6803F40013002B06D0CE
:10176C00234BDA682249BB691343CB6006E0204B5C
:10177C00DA68BB69DB431E491340CB603B685B688E
:10178C0003F40033002B06D0194B5A681849BB6977
:10179C0013434B6006E0164B5A68BB69DB43144994
:1017AC0013404B603B685B6803F48033002B21D003
:1017BC000F4B1A680E49BB6913430B6021E000BF45
:1017CC000000321000003110000022100000211027
:1017DC000000121000001110001002400000014027
:1017EC0000080140000C01400010014000140140B1
:1017FC00000401400B4B1A68BB69DB4309491340D9
:10180C000B607B6A01337B623B681A687B6A22FA45
:10181C0003F3002B7FF48EAE00BF00BF2C37BD4608
:10182C0080BC70470004014080B483B000AF786086
:10183C000B467B8013467B707B78002B03D07A8819
:10184C007B681A6103E07B881A047B681A6100BF0D
:10185C000C37BD4680BC704780B586B000AF786051
:10186C007B68002B01D1012372E27B681B6803F0BB
:10187C000103002B00F08780924B5B6803F00C0394
:10188C00042B0CD08F4B5B6803F00C03082B12D18C
:10189C008C4B5B6803F48033B3F5803F0BD1894BE1
:1018AC001B6803F40033002B6CD07B685B68002B47
:1018BC0068D101234CE27B685B68B3F5803F06D1AD
:1018CC00804B1B687F4A43F4803313602EE07B68A7
:1018DC005B68002B0CD17B4B1B687A4A23F480335A
:1018EC001360784B1B68774A23F4802313601DE048
:1018FC007B685B68B3F5A02F0CD1724B1B68714AE7
:10190C0043F4802313606F4B1B686E4A43F480339F
:10191C0013600BE06B4B1B686A4A23F48033136033
:10192C00684B1B68674A23F4802313607B685B68F1
:10193C00002B13D0FFF76AF9386108E0FFF766F95E
:10194C0002463B69D31A642B01D9032300E25D4B99
:10195C001B6803F40033002BF0D014E0FFF756F9AA
:10196C00386108E0FFF752F902463B69D31A642B41
:10197C0001D90323ECE1534B1B6803F40033002B18
:10198C00F0D100E000BF7B681B6803F00203002B62
:10199C0063D04C4B5B6803F00C03002B0BD0494B12
:1019AC005B6803F00C03082B1CD1464B5B6803F4FB
:1019BC008033002B16D1434B1B6803F00203002B22
:1019CC0005D07B681B69012B01D00123C0E13D4B85
:1019DC001B6823F0F8027B685B69DB003949134311
:1019EC000B603AE07B681B69002B20D0364B012240
:1019FC001A60FFF70BF9386108E0FFF707F90246A8
:101A0C003B69D31A022B01D90323A1E12D4B1B688F
:101A1C0003F00203002BF0D02A4B1B6823F0F802D2
:101A2C007B685B69DB00274913430B6015E0264B91
:101A3C0000221A60FFF7EAF8386108E0FFF7E6F8D1
:101A4C0002463B69D31A022B01D9032380E11D4BBB
:101A5C001B6803F00203002BF0D17B681B6803F0BA
:101A6C000803002B3AD07B689B69002B19D0174BCD
:101A7C0001221A60FFF7CAF8386108E0FFF7C6F8D0
:101A8C0002463B69D31A022B01D9032360E10D4BAB
:101A9C005B6A03F00203002BF0D0012000F0CEFAB9
:101AAC001CE00A4B00221A60FFF7B0F838610FE017
:101ABC00FFF7ACF802463B69D31A022B08D9032373
:101ACC0046E100BF00100240000042428004424246
:101ADC00924B5B6A03F00203002BE9D17B681B6815
:101AEC0003F00403002B00F0A6800023FB758B4B46
:101AFC00DB6903F08053002B0DD1884BDB69874ADF
:101B0C0043F08053D361854BDB6903F08053BB609A
:101B1C00BB680123FB75824B1B6803F48073002B9D
:101B2C0018D17F4B1B687E4A43F480731360FFF718
:101B3C006DF8386108E0FFF769F802463B69D31A83
:101B4C00642B01D9032303E1754B1B6803F48073E9
:101B5C00002BF0D07B68DB68012B06D16F4B1B6A26
:101B6C006E4A43F0010313622DE07B68DB68002BA7
:101B7C000CD16A4B1B6A694A23F001031362674B51
:101B8C001B6A664A23F0040313621CE07B68DB6863
:101B9C00052B0CD1614B1B6A604A43F004031362A2
:101BAC005E4B1B6A5D4A43F0010313620BE05B4B17
:101BBC001B6A5A4A23F001031362584B1B6A574A9B
:101BCC0023F0040313627B68DB68002B15D0FFF74E
:101BDC001DF838610AE0FFF719F802463B69D31A81
:101BEC0041F28832934201D90323B1E04B4B1B6A7B
:101BFC0003F00203002BEED014E0FFF707F8386176
:101C0C000AE0FFF703F802463B69D31A41F2883227
:101C1C00934201D903239BE0404B1B6A03F0020360
:101C2C00002BEED1FB7D012B05D13C4BDB693B4AF4
:101C3C0023F08053D3617B68DB69002B00F0878035
:101C4C00364B5B6803F00C03082B61D07B68DB69B7
:101C5C00022B46D1334B00221A60FEF7D7FF3861B6
:101C6C0008E0FEF7D3FF02463B69D31A022B01D9D9
:101C7C0003236DE0294B1B6803F00073002BF0D19C
:101C8C007B681B6AB3F5803F08D1244B5B6823F457
:101C9C0000327B689B68214913434B601F4B5B6888
:101CAC0023F474127B68196A7B685B6A0B431B49CB
:101CBC0013434B601B4B01221A60FEF7A7FF3861E0
:101CCC0008E0FEF7A3FF02463B69D31A022B01D9A9
:101CDC0003233DE0114B1B6803F00073002BF0D085
:101CEC0035E0104B00221A60FEF790FF386108E0D7
:101CFC00FEF78CFF02463B69D31A022B01D9032352
:101D0C0026E0064B1B6803F00073002BF0D11EE09D
:101D1C007B68DB69012B07D1012319E0001002401D
:101D2C0000700040600042420B4B5B68FB60FB683C
:101D3C0003F480327B681B6A9A4206D1FB6803F479
:101D4C0070127B685B6A9A4201D0012300E0002389
:101D5C0018461837BD4680BD0010024080B584B0CF
:101D6C0000AF786039607B68002B01D10123D0E093
:101D7C006A4B1B6803F007033A689A4210D9674B09
:101D8C001B6823F0070265493B6813430B60634BE8
:101D9C001B6803F007033A689A4201D00123B8E0AC
:101DAC007B681B6803F00203002B20D07B681B6848
:101DBC0003F00403002B05D0594B5B68584A43F4DD
:101DCC00E06353607B681B6803F00803002B05D0AD
:101DDC00534B5B68524A43F460535360504B5B68FF
:101DEC0023F0F0027B689B684D4913434B607B6882
:101DFC001B6803F00103002B40D07B685B68012B50
:101E0C0007D1474B1B6803F40033002B15D101237A
:101E1C007FE07B685B68022B07D1414B1B6803F0AA
:101E2C000073002B09D1012373E03D4B1B6803F0B9
:101E3C000203002B01D101236BE0394B5B6823F0CB
:101E4C0003027B685B68364913434B60FEF7DEFE8A
:101E5C00F8600AE0FEF7DAFE0246FB68D31A41F29C
:101E6C008832934201D9032353E02D4B5B6803F076
:101E7C000C027B685B689B009A42EBD1274B1B687A
:101E8C0003F007033A689A4210D2244B1B6823F0E4
:101E9C00070222493B6813430B60204B1B6803F07D
:101EAC0007033A689A4201D0012332E07B681B6831
:101EBC0003F00403002B08D0194B5B6823F4E06299
:101ECC007B68DB68164913434B607B681B6803F027
:101EDC000803002B09D0124B5B6823F460527B681B
:101EEC001B69DB000E4913434B6000F021F80246DE
:101EFC000B4B5B681B0903F00F030A49CB5C22FAFE
:101F0C0003F3094A1360094B1B681846FEF73CFEA5
:101F1C00002318461037BD4680BD00BF002002408C
:101F2C0000100240103A00080000002004000020BD
:101F3C0080B487B000AF0023FB600023BB6000239C
:101F4C007B6100237B6000233B611E4B5B68FB6065
:101F5C00FB6803F00C03042B02D0082B03D027E002
:101F6C00194B3B6127E0FB689B0C03F00F03174AEE
:101F7C00D35C7B60FB6803F48033002B10D0114BD7
:101F8C005B685B0C03F00103114AD35CBB607B689C
:101F9C000D4A03FB02F2BB68B2FBF3F37B6104E076
:101FAC007B680C4A02FB03F37B617B693B6102E0BB
:101FBC00054B3B6100BF3B6918461C37BD4680BCD6
:101FCC00704700BF0010024000127A00283A000847
:101FDC00383A000800093D0080B400AF024B1B6882
:101FEC001846BD4680BC70470000002080B500AF8D
:101FFC00FFF7F2FF0246054B5B681B0A03F0070371
:10200C000349CB5C22FA03F3184680BD0010024052
:10201C00203A000880B500AFFFF7DEFF0246054B03
:10202C005B68DB0A03F007030349CB5C22FA03F37A
:10203C00184680BD00100240203A000880B485B0DC
:10204C0000AF78600A4B1B680A4AA2FB03235B0AA9
:10205C007A6802FB03F3FB6000BFFB685A1EFA6050
:10206C00002BF9D100BF00BF1437BD4680BC7047B0
:10207C0000000020D34D621080B586B000AF7860B0
:10208C0000233B610023FB607B681B6803F00103AA
:10209C00002B7DD00023FB754F4BDB6903F0805385
:1020AC00002B0DD14C4BDB694B4A43F08053D36171
:1020BC00494BDB6903F08053BB60BB680123FB75A4
:1020CC00464B1B6803F48073002B18D1434B1B68E1
:1020DC00424A43F480731360FEF798FD386108E0C0
:1020EC00FEF794FD02463B69D31A642B01D90323F6
:1020FC006DE03A4B1B6803F48073002BF0D0364B29
:10210C001B6A03F44073FB60FB68002B2ED07B68CA
:10211C005B6803F44073FA689A4227D02E4B1B6A13
:10212C0023F44073FB602E4B01221A602C4B0022CF
:10213C001A60294AFB681362FB6803F00103002B49
:10214C0014D0FEF763FD38610AE0FEF75FFD02462E
:10215C003B69D31A41F28832934201D9032336E00A
:10216C001D4B1B6A03F00203002BEED01A4B1B6AAB
:10217C0023F440727B685B68174913430B62FB7D49
:10218C00012B05D1144BDB69134A23F08053D36127
:10219C007B681B6803F00203002B08D00E4B5B68B6
:1021AC0023F440427B689B680B4913434B607B686C
:1021BC001B6803F01003002B08D0074B5B6823F45B
:1021CC0080027B68DB68044913434B60002318468C
:1021DC001837BD4680BD00BF0010024000700040A3
:1021EC004004424280B582B000AF78607B68002B1F
:1021FC0001D1012376E07B685B6A002B08D17B68F8
:10220C005B68B3F5827F09D07B680022DA6105E058
:10221C007B6800221A617B6800225A617B6800226D
:10222C009A627B6893F85130DBB2002B06D17B6845
:10223C00002283F850207868FEF7BCFA7B680222F3
:10224C0083F851207B681B681A687B681B6822F036
:10225C0040021A607B685B6803F482727B689B683F
:10226C0003F404431A437B68DB6803F400631A43EA
:10227C007B681B6903F002031A437B685B6903F0FC
:10228C0001031A437B689B6903F400731A437B6850
:10229C00DB6903F038031A437B681B6A03F0800385
:1022AC0042EA03017B689B6A03F400527B681B685B
:1022BC000A431A607B689B691A0C7B681B6802F0E6
:1022CC0004025A607B681B68DA697B681B6822F41D
:1022DC000062DA617B6800225A657B68012283F810
:1022EC005120002318460837BD4680BD80B582B00A
:1022FC0000AF78607B68002B01D1012341E07B6843
:10230C0093F83D30DBB2002B06D17B68002283F8BA
:10231C003C207868FEF798FA7B68022283F83D200F
:10232C007B681A687B6804331946104600F048F93C
:10233C007B68012283F846207B68012283F83E20CB
:10234C007B68012283F83F207B68012283F84020C0
:10235C007B68012283F841207B68012283F84220AC
:10236C007B68012283F843207B68012283F8442098
:10237C007B68012283F845207B68012283F83D208D
:10238C00002318460837BD4680BD000080B485B0D8
:10239C0000AF78607B6893F83D30DBB2012B01D045
:1023AC0001233AE07B68022283F83D207B681B689E
:1023BC00DA687B681B6842F00102DA607B681B6894
:1023CC00184A93420ED07B681B68B3F1804F09D03A
:1023DC007B681B68144A934204D07B681B68134AC1
:1023EC00934211D17B681B689B6803F00703FB6069
:1023FC00FB68062B10D07B681B681A687B681B680F
:10240C0042F001021A6007E07B681B681A687B685F
:10241C001B6842F001021A60002318461437BD46AF
:10242C0080BC7047002C01400004004000080040B4
:10243C0080B584B000AF786039600023FB737B6893
:10244C0093F83C30012B01D10223B4E07B680122CC
:10245C0083F83C207B68022283F83D207B681B6854
:10246C009B68BB60BB6823F07703BB60BB6823F43D
:10247C007F43BB607B681B68BA689A603B681B68CB
:10248C00B3F5005F3ED0B3F5005F00F28780B3F583
:10249C00805F00F08680B3F5805F7FD8702B1AD0F8
:1024AC00702B7BD8602B50D0602B77D8502B3CD026
:1024BC00502B73D8402B58D0402B6FD8302B64D076
:1024CC00302B6BD8202B60D0202B67D8002B5CD006
:1024DC00102B5AD062E07B6818683B6899683B689F
:1024EC005A683B68DB6800F050F97B681B689B6896
:1024FC00BB60BB6843F07703BB607B681B68BA6842
:10250C009A604FE07B6818683B6899683B685A682A
:10251C003B68DB6800F039F97B681B689A687B685C
:10252C001B6842F480429A603CE07B6818683B6808
:10253C0059683B68DB681A4600F0B0F87B681B688A
:10254C005021184600F007F92CE07B6818683B68AE
:10255C0059683B68DB681A4600F0CEF87B681B684C
:10256C006021184600F0F7F81CE07B6818683B689F
:10257C0059683B68DB681A4600F090F87B681B686A
:10258C004021184600F0E7F80CE07B681A683B68BD
:10259C001B681946104600F0DEF803E00123FB73BC
:1025AC0000E000BF7B68012283F83D207B6800229D
:1025BC0083F83C20FB7B18461037BD4680BD0000DD
:1025CC0080B485B000AF786039607B681B68FB60B5
:1025DC007B682F4A93420BD07B68B3F1804F07D0B6
:1025EC007B682C4A934203D07B682B4A934208D1D8
:1025FC00FB6823F07003FB603B685B68FA6813436D
:10260C00FB607B68224A93420BD07B68B3F1804F0E
:10261C0007D07B681F4A934203D07B681E4A9342C3
:10262C0008D1FB6823F44073FB603B68DB68FA68F5
:10263C001343FB60FB6823F080023B685B69134328
:10264C00FB607B68FA681A603B689A687B68DA62A0
:10265C003B681A687B689A627B680D4A934203D187
:10266C003B681A697B681A637B6801225A617B6834
:10267C001B6903F00103002B05D07B681B6923F059
:10268C0001027B681A6100BF1437BD4680BC7047DD
:10269C00002C0140000400400008004080B487B0CA
:1026AC0000AFF860B9607A60FB681B6A7B61FB68FD
:1026BC001B6A23F00102FB681A62FB689B693B6191
:1026CC003B6923F0F0033B617B681B013A691343C0
:1026DC003B617B6923F00A037B617A69BB68134316
:1026EC007B61FB683A699A61FB687A691A6200BF80
:1026FC001C37BD4680BC704780B487B000AFF86013
:10270C00B9607A60FB681B6A7B61FB681B6A23F00B
:10271C001002FB681A62FB689B693B613B6923F4FE
:10272C0070433B617B681B033A6913433B617B69D4
:10273C0023F0A0037B61BB681B017A6913437B61A7
:10274C00FB683A699A61FB687A691A6200BF1C37A8
:10275C00BD4680BC704780B485B000AF78603960EE
:10276C007B689B68FB60FB6823F07003FB603A6836
:10277C00FB68134343F00703FB607B68FA689A60BD
:10278C0000BF1437BD4680BC704780B487B000AF23
:10279C00F860B9607A603B60FB689B687B617B6921
:1027AC0023F47F437B613B681A027B681A43BB6846
:1027BC0013437A6913437B61FB687A699A6000BFA3
:1027CC001C37BD4680BC704780B485B000AF7860C4
:1027DC0039607B6893F83C30012B01D1022346E031
:1027EC007B68012283F83C207B68022283F83D2021
:1027FC007B681B685B68FB607B681B689B68BB60C5
:10280C00FB6823F07003FB603B681B68FA6813439A
:10281C00FB607B681B68FA685A607B681B68164A09
:10282C0093420ED07B681B68B3F1804F09D07B6854
:10283C001B68124A934204D07B681B68104A93426F
:10284C000CD1BB6823F08003BB603B685B68BA6843
:10285C001343BB607B681B68BA689A607B68012273
:10286C0083F83D207B68002283F83C200023184627
:10287C001437BD4680BC7047002C0140000400405A
:10288C000008004080B582B000AF78607B68002BF8
:10289C0001D1012342E07B6893F84130DBB2002B7D
:1028AC0006D17B68002283F840207868FDF7E8FFAA
:1028BC007B68242283F841207B681B68DA687B687C
:1028CC001B6822F40052DA60786800F02BF87B6801
:1028DC001B681A697B681B6822F490421A617B683A
:1028EC001B685A697B681B6822F02A025A617B6854
:1028FC001B68DA687B681B6842F40052DA607B68FC
:10290C0000225A647B68202283F841207B682022B5
:10291C0083F842207B6800225A630023184608374C
:10292C00BD4680BD80B584B000AF78607B681B6805
:10293C001B6923F440517B68DA687B681B680A4387
:10294C001A617B689A687B681B691A437B685B69B0
:10295C001343BB607B681B68DB6823F4B05323F024
:10296C000C037A681268B9680B43D3607B681B68E8
:10297C005B6923F440717B689A697B681B680A4326
:10298C005A617B681B682C4A934203D1FFF742FBC8
:10299C00F86002E0FFF72AFBF860FA6813469B0028
:1029AC0013449A001A447B685B689B00B2FBF3F3F8
:1029BC00224AA2FB03235B091901FA6813469B0008
:1029CC0013449A001A447B685B689B00B2FBF3F2D9
:1029DC001A4BA3FB02035B09642000FB03F3D31A1D
:1029EC001B013233154AA2FB03235B0903F0F003EE
:1029FC001944FA6813469B0013449A001A447B68E6
:102A0C005B689B00B2FBF3F20C4BA3FB02035B096C
:102A1C00642000FB03F3D31A1B013233074AA2FBD9
:102A2C0003235B0903F00F027B681B680A449A605E
:102A3C0000BF1037BD4680BD003801401F85EB51EB
:102A4C0038B5104B04461D682B6BB3B9182000F039
:102A5C000DFA0246286320B946210B4B0B4800F0B7
:102A6C009FF90B490B4BC0E900130B4B0021836002
:102A7C000B2383810120C2E9040100222B6B1C6112
:102A8C005A6138BD180000203A3A0008513A000843
:102A9C000E33CDAB34126DE6ECDE0500002310B521
:102AAC000446C0E90033C0E9043383608181436686
:102ABC00C2818361194608225C3000F0F4F80D4B9A
:102ACC00246263620C4BA3620C4BE3620C4B2363DA
:102ADC000C4B9C4206D003F16802944202D0D033D6
:102AEC009C4205D104F15800BDE8104000F054B9E7
:102AFC0010BD00BF2D2C00084F2C0008872C00089F
:102B0C00AB2C000830020020024A0349034800F0B5
:102B1C0069B800BF0C000020E53000081C00002044
:102B2C0041680C4B10B59942044601D000F0D4FA20
:102B3C00A168094B994202D0204600F0CDFAE16819
:102B4C00064B994204D02046BDE8104000F0C4BAB0
:102B5C0010BD00BF300200209802002000030020AE
:102B6C0010B50B4B0B4C0C4A20461A60042100226A
:102B7C00FFF794FF04F1680001220921FFF78EFF93
:102B8C0004F1D0000222BDE810401221FFF786BFED
:102B9C006803002030020020152B0008014800F0CB
:102BAC00FCB800BF71030020014800F0F7B800BF6B
:102BBC007103002010B50446FFF7F0FF236A1BB128
:102BCC00BDE81040FFF7F0BF044B2362044B1B68B9
:102BDC00002BF5D1FFF7C4FFF2E700BF2D2B000847
:102BEC00680300202DE9F843074688461446002662
:102BFC00D4E90195B9F1010905D52468002CF7D168
:102C0C003046BDE8F883AB89012B07D9B5F90E30F6
:102C1C00013303D029463846C04706436835E9E7F7
:102C2C0010B50C46B1F90E1000F068F80028ABBFD7
:102C3C00636DA3891B1823F48053ACBF6365A38118
:102C4C0010BD2DE9F0411F468B890546DB050C466E
:102C5C00164605D502230022B1F90E1000F03CF8FF
:102C6C00A389324623F48053A38128463B46B4F90A
:102C7C000E10BDE8F04100F053B810B50C46B1F998
:102C8C000E1000F029F8431CA38915BF606523F4CE
:102C9C00805343F48053A38118BFA38110BDB1F9B5
:102CAC000E1000F009B803460244934200D170475D
:102CBC0003F8011BF9E7000038B50023054D044665
:102CCC0008462B60FDF7B7FE431C02D12B6803B1FD
:102CDC00236038BD6C03002038B504460846114605
:102CEC000022054D2A601A46FDF7C9FE431C02D18D
:102CFC002B6803B1236038BD6C03002038B5044643
:102D0C00084611460022054D2A601A46FDF75AFE68
:102D1C00431C02D12B6803B1236038BD6C03002027
:102D2C0038B50446084611460022054D2A601A465D
:102D3C00FDF765FE431C02D12B6803B1236038BD3F
:102D4C006C030020014B1868704700BF180000206E
:102D5C0070B500260C4D0D4C641BA410A64209D175
:102D6C0000F044FE00260A4D0A4C641BA410A64237
:102D7C0005D170BD55F8043B98470136EEE755F880
:102D8C00043B98470136F2E7183B0008183B000853
:102D9C00183B00081C3B0008704770477047000048
:102DAC001FB514461A46094B05461B68D8684CB12A
:102DBC00074BCDE9013400912B46064900F0B4F9DC
:102DCC0000F0D4F9044B1C46F3E700BF18000020B8
:102DDC00A93A0008B63A0008E43A000838B50546A6
:102DEC00002940D051F8043C0C1F002BB8BFE4184C
:102DFC0000F0E6F81C4A136833B963601460284687
:102E0C00BDE8384000F0E2B8A34208D92068211888
:102E1C008B4201BF19685B6809182160EDE71A46FF
:102E2C005B680BB1A342FAD911685018A0420BD1C0
:102E3C0020680144501883421160E0D118685B6827
:102E4C00084410605360DAE702D90C232B60D6E7F4
:102E5C00206821188B4201BF19685B680918216032
:102E6C0063605460CBE738BD78030020024B014609
:102E7C00186800F025B800BF1800002070B50F4E80
:102E8C000C463168054611B900F060F930602146F6
:102E9C00284600F05BF9431C03D14FF0FF34204669
:102EAC0070BDC41C24F00304A042F8D0211A28469B
:102EBC0000F04CF90130F2D1EFE700BF74030020B1
:102ECC002DE9F843CD1C25F0030508350C2D38BF32
:102EDC000C25002D064601DBA94204D90C233360D6
:102EEC000020BDE8F883DFF8D48000F069F8D8F84A
:102EFC0000301C4644BB29463046FFF7BFFF431C3D
:102F0C00044658D1D8F800402746002F43D1002C56
:102F1C004BD023683946304604EB030900F016F910
:102F2C00814542D1216830466D1A2946FFF7A6FF2C
:102F3C0001303AD023682B442360D8F800305A680B
:102F4C0062BBC8F800700FE02268521B20D40B2A19
:102F5C0017D96119A342256018BF5960636808BF6F
:102F6C00C8F8001062514B60304600F02FF804F1A5
:102F7C000B00231D20F00700C21A1CBF1B1AA35004
:102F8C00AFE76268A3420CBFC8F800205A60EBE7B9
:102F9C0023466468AEE73C467F68B6E71A465B6832
:102FAC00A342FBD100235360DEE70C233046336091
:102FBC0000F00CF894E70560D6E700BF780300201A
:102FCC000148FFF7EABE00BF700300200148FFF77D
:102FDC00E5BE00BF70030020B1F90C20F8B5160750
:102FEC0005460C4654D44B68002B02DC0B6C002BB2
:102FFC0048DDE66A002E45D0002312F480522F687B
:10300C00216A2B6030D0626DA389590705D563689E
:10301C00D21A636B0BB1236CD21A00232846E66AD2
:10302C00216AB047431CA38906D129681D292BD8D6
:10303C00284ACA40D60727D5002262602269D904E3
:10304C00226004D5421C01D12B6803B96065616B09
:10305C002F60B9B104F14403994202D02846FFF71E
:10306C00BDFE002363630DE001232846B0470246F2
:10307C00501CC9D12B68002BC6D01D2B01D0162B90
:10308C001DD12F60002021E043F040031BB21AE059
:10309C000F69002FF6D0930718BF00230E6808BFE6
:1030AC004B69F61B0F608B60002EEBDD33463A4606
:1030BC002846216AD4F828C0E047002807DCB4F978
:1030CC000C3043F040034FF0FF30A381F8BD0744B0
:1030DC00361AE9E70100402038B50B6905460C4665
:1030EC0013B90025284638BD18B1036A0BB9FFF790
:1030FC0061FDB4F90C30002BF3D0626ED00704D410
:10310C00990502D4A06DFFF748FE28462146FFF72B
:10311C0063FF636E0546DA07E4D4A3899B05E1D40B
:10312C00A06DFFF73BFEDDE70EB403B5014603AB24
:10313C00054853F8042B0068019300F045F802B0E1
:10314C005DF804EB03B070471800002038B500237D
:10315C00054D044608462B60FDF79EFC431C02D12E
:10316C002B6803B1236038BD6C030020062008B522
:10317C0000F08EFB0120FDF71AFC936810B4013BA4
:10318C00002B936007DA9469A34201DB0A2902D170
:10319C0010BC00F0C1BA1368581C106019700846B6
:1031AC0010BC7047F8B506460F461446D518AC420D
:1031BC0001D1002007E03A46304614F8011BFFF716
:1031CC00DCFF431CF3D1F8BD2DE9F04F0D4614463E
:1031DC00984606469DB018B1036A0BB9FFF7EAFC96
:1031EC006B6ED90705D4AB899A0502D4A86DFFF78D
:1031FC00D4FDAB891B0701D52B699BB929463046F9
:10320C0000F0C8FA70B16B6EDC0704D54FF0FF30DC
:10321C001DB0BDE8F08FAB899805F7D4A86DFFF70A
:10322C00BDFDF3E70023099320238DF829303023CB
:10323C004FF00109CDF80C80DFF8A8818DF82A3009
:10324C0023469A4613F8012B0AB1252AF9D1BAEB79
:10325C00040B0BD05B46224629463046FFF7A2FFF3
:10326C00013000F0A780099A5A4409929AF800306C
:10327C00002B00F09F8000234FF0FF32CDE9052397
:10328C000AF1010A049307938DF853301A935446AC
:10329C00052214F8011B534800F016FB049AD8B908
:1032AC00D10644BF20238DF85330130744BF2B2382
:1032BC008DF853309AF800302A2B15D05446002044
:1032CC004FF00A0C079A214611F8013B303B092BB1
:1032DC004BD9B0B1079214E0A0EB080309FA03F341
:1032EC001343A2460493D2E7039B191D1B68039159
:1032FC00002BBBBF5B4242F0020207930793B8BF9F
:10330C00049223782E2B0AD163782A2B32D1039B7B
:10331C0002341A1D1B68039243EAE3730593DFF82A
:10332C00C8A003225046217800F0CEFA38B14022D2
:10333C00049BA0EB0A00824013430134049314F85D
:10334C00011B062229488DF8281000F0BDFA002830
:10335C003FD0274B1BBB039B073323F007030833DA
:10336C000393099B3B4409936AE70C4601200CFB31
:10337C000232A8E700234FF00A0C194601340593DA
:10338C00204610F8012B303A092A03D9002BC6D05D
:10339C000591C4E7044601230CFB0121F0E703ABC4
:1033AC0000932A463046134B04A9AFF3008007461E
:1033BC00781CD6D16B6ED90705D4AB899A0502D48B
:1033CC00A86DFFF7EBFCAB895B063FF51FAF0998C7
:1033DC001EE703AB00932A463046064B04A900F0C7
:1033EC007DF8E4E7E53A0008EB3A0008EF3A00080C
:1033FC0000000000B13100082DE9F0471646984650
:10340C008A680B6907469342B8BF1346336091F83C
:10341C0043200C46DDF820900AB101333360236859
:10342C00990642BF336802333360256815F00605F0
:10343C0006D104F1190AE36832689B1AAB422BDC03
:10344C0094F843302268003B18BF0123920630D415
:10345C004146384604F14302C847013023D0236863
:10346C00226903F00603042B14BF002533684FF0C8
:10347C00000608BFE56804F11A0408BFED1A54F8F9
:10348C00123C08BF25EAE5759342C4BF9B1AED18A0
:10349C00B5421AD1002008E0012352464146384675
:1034AC00C847013003D14FF0FF30BDE8F08701353C
:1034BC00C1E73020E11881F843005A1C94F84510FC
:1034CC002244023382F84310C2E7012322464146CC
:1034DC003846C8470130E6D00136D9E72DE9FF4719
:1034EC000F7E9146782F80460C469A460C9E01F131
:1034FC00430207D8622F0AD8002F00F0D180582F32
:10350C0000F0B88004F1420684F842703AE0A7F16A
:10351C006303152BF6D801A151F823F0813500086F
:10352C0095350008113500081135000811350008D3
:10353C0011350008953500081135000811350008C3
:10354C00113500081135000893360008BF35000806
:10355C004D3600081135000811350008B536000845
:10356C0011350008BF350008113500081135000869
:10357C005536000833681A1D1B68326004F1420688
:10358C0084F8423001239CE033682068191D3160B7
:10359C00060601D51D6803E04506FBD5B3F90050BE
:1035AC00002D03DA2D236D4284F843300A2358484A
:1035BC0011E021683368080653F8045B02D449060D
:1035CC0048BFADB26F2F336014BF0A230823504895
:1035DC00002184F843106668002EA66005DB216884
:1035EC002E4321F0040121604BD01646B5FBF3F1BC
:1035FC0003FB1157C75D06F8017D2F46BB420D46F4
:10360C00F4D9082B0BD12368DF0708D5236961682F
:10361C009942DEBF302306F8013C06F1FF36921BBF
:10362C0022614B4621464046CDF800A003AAFFF785
:10363C00E3FE01304AD14FF0FF3004B0BDE8F08713
:10364C00236843F0200323607827324884F84570C0
:10365C00236831681F0651F8045B02D45F0648BF2B
:10366C00ADB23160D90744BF43F0200323601DB1D4
:10367C001023ADE72648E9E7236823F020032360F5
:10368C00F6E71646BDE733682568181D616930609A
:10369C002E061B6801D5196002E06806FBD519805F
:1036AC00002316462361BCE7336800211A1D3260E3
:1036BC001E686268304600F007F908B1801B606034
:1036CC0063682361002384F84330AAE732464946F5
:1036DC0040462369D0470130ADD023689B0713D4F3
:1036EC00E068039B9842B8BF1846A6E70123324610
:1036FC0049464046D04701309DD00135E3680399D7
:10370C005B1AAB42F2DCEBE7002504F11906F5E796
:10371C00F63A0008073B0008F8B50E461446054675
:10372C0018B1036A0BB9FFF745FAA369A360A38923
:10373C001A0701D5236943B92146284600F02AF817
:10374C0018B14FF0FF373846F8BD23682269F6B23E
:10375C00981A63693746834205DC21462846FFF7F1
:10376C00BBFC0028EDD1A368013BA36023685A1C65
:10377C0022601E706269431C9A4204D0A389DB0745
:10378C00E1D50A2EDFD121462846FFF7A5FC0028FB
:10379C00D9D0D6E738B5294B054618680C4618B170
:1037AC00036A0BB9FFF706FAB4F90C30190722D4E7
:1037BC00DA0607D409222A6043F040034FF0FF30A9
:1037CC00A38133E0580712D5616B41B104F1440376
:1037DC00994202D02846FFF701FB00236363A389BB
:1037EC0023F02403A3810023636023692360A3894E
:1037FC0043F00803A38123694BB9A38903F4207315
:10380C00B3F5007F03D02146284600F090F8B4F9B8
:10381C000C3013F001020AD00022A26062695242FD
:10382C00A261226942B913F08000C5D138BD990755
:10383C0058BF6269A260F4E70020F7E71800002087
:10384C001F2938B505460C4604D9162303604FF0E2
:10385C00FF3038BDC26B12B152F821304BB928463B
:10386C0000F030F8224601462846BDE8384000F00A
:10387C0017B8012B0AD0591C03D116230360012061
:10388C00E7E70021204642F8241098470020E0E7A3
:10389C00024B01461868FFF7D3BF00BF1800002089
:1038AC0038B50023064D0446084611462B60FDF73B
:1038BC006EF8431C02D12B6803B1236038BD00BFE6
:1038CC006C030020FDF75CB8034610B5C9B2024486
:1038DC009342184601D1002003E0047801338C4256
:1038EC00F6D110BD70B50C46B1F90E101546002975
:1038FC001E4696B00CDAA389002113F0800F14BF7A
:10390C0040234FF48063002031602B6016B070BDF3
:10391C006A4600F049F80028EDDB019901F470418A
:10392C00A1F50053594259414FF48063EBE78B8961
:10393C00F7B59D0706460C4607D504F147032360EF
:10394C0023610123636103B0F0BD6A4601ABFFF74D
:10395C00C9FF009F054639463046FFF7B1FA48B912
:10396C00B4F90C309A05EED423F0030343F00203B0
:10397C00A381E2E7A389C4E9040743F08003A38190
:10398C00019B20605BB13046B4F90E1000F01EF8BC
:10399C0028B1A38923F0030343F00103A381A38976
:1039AC001D43A581CFE7000038B50023064D044622
:1039BC00084611462B60FDF749F8431C02D12B68D1
:1039CC0003B1236038BD00BF6C03002038B5002361
:1039DC00054D044608462B60FDF747F8431C02D101
:1039EC002B6803B1236038BD6C030020F8B500BF11
:1039FC00F8BC08BC9E467047F8B500BFF8BC08BCC4
:043A0C009E4670471B
:103A1000000000000000000001020304060708097E
:103A20000000000001020304020304050607080960
:103A30000A0B0C0D0E0F101001025245454E54207A
:103A40006D616C6C6F632073756363656564656439
:103A5000002F6275696C642F676E752D746F6F6CC3
:103A6000732D666F722D73746D33325F31332E3365
:103A70002E72656C312E32303234303932362D317F
:103A80003731352F7372632F6E65776C69622F6ED5
:103A900065776C69622F6C6962632F7374646C69FB
:103AA000622F72616E642E63002C2066756E6374E3
:103AB000696F6E3A2000617373657274696F6E206E
:103AC00022257322206661696C65643A2066696C00
:103AD0006520222573222C206C696E6520256425C3
:103AE0007325730A00232D302B2000686C4C006571
:103AF000666745464700303132333435363738391A
:103B0000414243444546003031323334353637384C
:083B100039616263646566001F
:043B1800310100086F
:043B1C000D0100088F
:103B200000127A00100000000100000000000000F8
:103B300003000000300200201C00002000000000F4
:103B40003002002098020020000300200000000046
:103B50000000000000000000000000000000000065
:103B60000000000000000000000000000000000055
:103B70000000000000000000000000000000000045
:083B800000000000000000003D
:0400000508000B1DC7
:00000001FF
